{
  "contractName": "Betting",
  "abi": [
    {
      "inputs": [],
      "payable": false,
      "stateMutability": "nonpayable",
      "type": "constructor"
    },
    {
      "constant": true,
      "inputs": [
        {
          "internalType": "uint256",
          "name": "",
          "type": "uint256"
        }
      ],
      "name": "bets",
      "outputs": [
        {
          "internalType": "uint256",
          "name": "betId",
          "type": "uint256"
        },
        {
          "internalType": "bytes32",
          "name": "question",
          "type": "bytes32"
        },
        {
          "internalType": "enum Betting.BetStatus",
          "name": "betStatus",
          "type": "uint8"
        },
        {
          "internalType": "uint256",
          "name": "lengthMoneyLineData",
          "type": "uint256"
        },
        {
          "internalType": "uint256",
          "name": "correctChoice",
          "type": "uint256"
        }
      ],
      "payable": false,
      "stateMutability": "view",
      "type": "function"
    },
    {
      "constant": true,
      "inputs": [],
      "name": "lengthBets",
      "outputs": [
        {
          "internalType": "uint256",
          "name": "",
          "type": "uint256"
        }
      ],
      "payable": false,
      "stateMutability": "view",
      "type": "function"
    },
    {
      "constant": true,
      "inputs": [],
      "name": "isOwner",
      "outputs": [
        {
          "internalType": "bool",
          "name": "",
          "type": "bool"
        }
      ],
      "payable": false,
      "stateMutability": "view",
      "type": "function"
    },
    {
      "constant": false,
      "inputs": [],
      "name": "addNewEmptyBet",
      "outputs": [],
      "payable": false,
      "stateMutability": "nonpayable",
      "type": "function"
    },
    {
      "constant": false,
      "inputs": [
        {
          "internalType": "bytes32",
          "name": "question",
          "type": "bytes32"
        },
        {
          "internalType": "bytes32[2]",
          "name": "options",
          "type": "bytes32[2]"
        },
        {
          "internalType": "int256[2]",
          "name": "values",
          "type": "int256[2]"
        }
      ],
      "name": "addBet",
      "outputs": [],
      "payable": false,
      "stateMutability": "nonpayable",
      "type": "function"
    },
    {
      "constant": true,
      "inputs": [
        {
          "internalType": "uint256",
          "name": "betId",
          "type": "uint256"
        }
      ],
      "name": "getLengthMoneyLineData",
      "outputs": [
        {
          "internalType": "uint256",
          "name": "",
          "type": "uint256"
        }
      ],
      "payable": false,
      "stateMutability": "view",
      "type": "function"
    },
    {
      "constant": true,
      "inputs": [
        {
          "internalType": "uint256",
          "name": "betId",
          "type": "uint256"
        },
        {
          "internalType": "uint256",
          "name": "idx",
          "type": "uint256"
        }
      ],
      "name": "getMoneyLineData",
      "outputs": [
        {
          "internalType": "bytes32",
          "name": "",
          "type": "bytes32"
        },
        {
          "internalType": "int256",
          "name": "",
          "type": "int256"
        },
        {
          "internalType": "uint256",
          "name": "",
          "type": "uint256"
        }
      ],
      "payable": false,
      "stateMutability": "view",
      "type": "function"
    },
    {
      "constant": false,
      "inputs": [
        {
          "internalType": "uint256",
          "name": "betId",
          "type": "uint256"
        },
        {
          "internalType": "uint256",
          "name": "moneyLineDatumId",
          "type": "uint256"
        },
        {
          "internalType": "uint256",
          "name": "betValue",
          "type": "uint256"
        }
      ],
      "name": "bet",
      "outputs": [],
      "payable": true,
      "stateMutability": "payable",
      "type": "function"
    },
    {
      "constant": true,
      "inputs": [],
      "name": "myBets",
      "outputs": [
        {
          "internalType": "uint256[]",
          "name": "",
          "type": "uint256[]"
        },
        {
          "internalType": "bytes32[]",
          "name": "",
          "type": "bytes32[]"
        },
        {
          "internalType": "bytes32[]",
          "name": "",
          "type": "bytes32[]"
        },
        {
          "internalType": "int256[]",
          "name": "",
          "type": "int256[]"
        }
      ],
      "payable": false,
      "stateMutability": "view",
      "type": "function"
    },
    {
      "constant": false,
      "inputs": [
        {
          "internalType": "uint256",
          "name": "betId",
          "type": "uint256"
        }
      ],
      "name": "closeBet",
      "outputs": [],
      "payable": false,
      "stateMutability": "nonpayable",
      "type": "function"
    },
    {
      "constant": false,
      "inputs": [
        {
          "internalType": "uint256",
          "name": "betId",
          "type": "uint256"
        },
        {
          "internalType": "uint256",
          "name": "correctChoice",
          "type": "uint256"
        }
      ],
      "name": "payout",
      "outputs": [],
      "payable": false,
      "stateMutability": "nonpayable",
      "type": "function"
    },
    {
      "constant": true,
      "inputs": [],
      "name": "getBalance",
      "outputs": [
        {
          "internalType": "uint256",
          "name": "",
          "type": "uint256"
        }
      ],
      "payable": false,
      "stateMutability": "view",
      "type": "function"
    },
    {
      "constant": false,
      "inputs": [],
      "name": "redeem",
      "outputs": [],
      "payable": false,
      "stateMutability": "nonpayable",
      "type": "function"
    }
  ],
  "bytecode": "0x60806040523480156200001157600080fd5b50336000806101000a81548173ffffffffffffffffffffffffffffffffffffffff021916908373ffffffffffffffffffffffffffffffffffffffff1602179055506200005c6200040c565b60405180604001604052807f4761746f7273000000000000000000000000000000000000000000000000000081526020017f487572726963616e6573000000000000000000000000000000000000000000008152509050620000bd6200042e565b6040518060400160405280606981526020017fffffffffffffffffffffffffffffffffffffffffffffffffffffffffffffff6a8152509050620001287f4761746f727320767320487572726963616e65730000000000000000000000008383620001f260201b60201c565b60405180604001604052807f4761746f7273000000000000000000000000000000000000000000000000000081526020017f42756c6c646f677300000000000000000000000000000000000000000000000081525091506040518060400160405280606e81526020017fffffffffffffffffffffffffffffffffffffffffffffffffffffffffffffff608152509050620001ea7f4761746f72732076732042756c6c646f677300000000000000000000000000008383620001f260201b60201c565b505062000503565b6000809054906101000a900473ffffffffffffffffffffffffffffffffffffffff1673ffffffffffffffffffffffffffffffffffffffff163373ffffffffffffffffffffffffffffffffffffffff161462000284576040517f08c379a00000000000000000000000000000000000000000000000000000000081526004016200027b90620004d0565b60405180910390fd5b620002946200039460201b60201c565b60006001600060025481526020019081526020016000209050600254816000018190555083816001018190555060008160020160006101000a81548160ff02191690836002811115620002e357fe5b0217905550600160026000828254019250508190555060008090505b60028110156200037a5760405180604001604052808583600281106200032157fe5b602002015181526020018483600281106200033857fe5b602002015181525082600301600083815260200190815260200160002060008201518160000155602082015181600101559050508080600101915050620002ff565b506002816004016000828254019250508190555050505050565b6200039e62000450565b80600160006002548152602001908152602001600020600082015181600001556020820151816001015560408201518160020160006101000a81548160ff02191690836002811115620003ed57fe5b0217905550606082015181600401556080820151816006015590505050565b6040518060400160405280600290602082028038833980820191505090505090565b6040518060400160405280600290602082028038833980820191505090505090565b6040518060a001604052806000815260200160008019168152602001600060028111156200047a57fe5b815260200160008152602001600081525090565b60006200049d601383620004f2565b91507f556e617574686f726973656420416363657373000000000000000000000000006000830152602082019050919050565b60006020820190508181036000830152620004eb816200048e565b9050919050565b600082825260208201905092915050565b611a0380620005136000396000f3fe6080604052600436106100c25760003560e01c80638f32d59b1161007f578063b9b6006911610059578063b9b600691461025d578063be040fb014610288578063bfc548221461029f578063e5f51723146102bb576100c2565b80638f32d59b146101ca578063a24beff7146101f5578063b2606cb81461021e576100c2565b806312065fe0146100c7578063216de325146100f257806322af00fa146101205780633cd0ee09146101615780634a4e39d7146101785780635aa6cf97146101a1575b600080fd5b3480156100d357600080fd5b506100dc6102f8565b6040516100e99190611784565b60405180910390f35b3480156100fe57600080fd5b5061010761038f565b60405161011794939291906116b1565b60405180910390f35b34801561012c57600080fd5b50610147600480360361014291908101906113e3565b6107f6565b60405161015895949392919061179f565b60405180910390f35b34801561016d57600080fd5b50610176610839565b005b34801561018457600080fd5b5061019f600480360361019a9190810190611394565b6108ae565b005b3480156101ad57600080fd5b506101c860048036036101c3919081019061140c565b610a40565b005b3480156101d657600080fd5b506101df610d63565b6040516101ec9190611712565b60405180910390f35b34801561020157600080fd5b5061021c600480360361021791908101906113e3565b610dcb565b005b34801561022a57600080fd5b506102456004803603610240919081019061140c565b610e94565b6040516102549392919061172d565b60405180910390f35b34801561026957600080fd5b50610272610f70565b60405161027f9190611784565b60405180910390f35b34801561029457600080fd5b5061029d610f76565b005b6102b960048036036102b49190810190611448565b611087565b005b3480156102c757600080fd5b506102e260048036036102dd91908101906113e3565b611210565b6040516102ef9190611784565b60405180910390f35b60008060009054906101000a900473ffffffffffffffffffffffffffffffffffffffff1673ffffffffffffffffffffffffffffffffffffffff163373ffffffffffffffffffffffffffffffffffffffff1614610389576040517f08c379a000000000000000000000000000000000000000000000000000000000815260040161038090611764565b60405180910390fd5b47905090565b6060806060806000600360003373ffffffffffffffffffffffffffffffffffffffff1673ffffffffffffffffffffffffffffffffffffffff16815260200190815260200160002080549050905060608160405190808252806020026020018201604052801561040d5781602001602082028038833980820191505090505b5090506060826040519080825280602002602001820160405280156104415781602001602082028038833980820191505090505b5090506060836040519080825280602002602001820160405280156104755781602001602082028038833980820191505090505b5090506060846040519080825280602002602001820160405280156104a95781602001602082028038833980820191505090505b50905060008090505b858110156107de576000600360003373ffffffffffffffffffffffffffffffffffffffff1673ffffffffffffffffffffffffffffffffffffffff168152602001908152602001600020828154811061050657fe5b90600052602060002090600302016000015490506000600360003373ffffffffffffffffffffffffffffffffffffffff1673ffffffffffffffffffffffffffffffffffffffff168152602001908152602001600020838154811061056657fe5b9060005260206000209060030201600101549050600360003373ffffffffffffffffffffffffffffffffffffffff1673ffffffffffffffffffffffffffffffffffffffff16815260200190815260200160002083815481106105c457fe5b9060005260206000209060030201600201548784815181106105e257fe5b6020026020010181815250506001600083815260200190815260200160002060030160008281526020019081526020016000206000015486848151811061062557fe5b6020026020010181815250506000600281111561063e57fe5b6001600084815260200190815260200160002060020160009054906101000a900460ff16600281111561066d57fe5b14806106b257506001600281111561068157fe5b6001600084815260200190815260200160002060020160009054906101000a900460ff1660028111156106b057fe5b145b156106f5577f70656e64696e67000000000000000000000000000000000000000000000000008584815181106106e457fe5b6020026020010181815250506107cf565b8060016000848152602001908152602001600020600601541415610794577f776f6e000000000000000000000000000000000000000000000000000000000085848151811061074057fe5b6020026020010181815250506001600083815260200190815260200160002060030160008281526020019081526020016000206001015484848151811061078357fe5b6020026020010181815250506107ce565b7f6c6f7374000000000000000000000000000000000000000000000000000000008584815181106107c157fe5b6020026020010181815250505b5b505080806001019150506104b2565b50838383839850985098509850505050505090919293565b60016020528060005260406000206000915090508060000154908060010154908060020160009054906101000a900460ff16908060040154908060060154905085565b610841611230565b80600160006002548152602001908152602001600020600082015181600001556020820151816001015560408201518160020160006101000a81548160ff0219169083600281111561088f57fe5b0217905550606082015181600401556080820151816006015590505050565b6000809054906101000a900473ffffffffffffffffffffffffffffffffffffffff1673ffffffffffffffffffffffffffffffffffffffff163373ffffffffffffffffffffffffffffffffffffffff161461093d576040517f08c379a000000000000000000000000000000000000000000000000000000000815260040161093490611764565b60405180910390fd5b610945610839565b60006001600060025481526020019081526020016000209050600254816000018190555083816001018190555060008160020160006101000a81548160ff0219169083600281111561099357fe5b0217905550600160026000828254019250508190555060008090505b6002811015610a265760405180604001604052808583600281106109cf57fe5b602002015181526020018483600281106109e557fe5b6020020151815250826003016000838152602001908152602001600020600082015181600001556020820151816001015590505080806001019150506109af565b506002816004016000828254019250508190555050505050565b6000809054906101000a900473ffffffffffffffffffffffffffffffffffffffff1673ffffffffffffffffffffffffffffffffffffffff163373ffffffffffffffffffffffffffffffffffffffff1614610acf576040517f08c379a0000000000000000000000000000000000000000000000000000000008152600401610ac690611764565b60405180910390fd5b60016002811115610adc57fe5b6001600084815260200190815260200160002060020160009054906101000a900460ff166002811115610b0b57fe5b1415610d5f5780600160008481526020019081526020016000206006018190555060008090505b60016000848152602001908152602001600020600501600083815260200190815260200160002080549050811015610d255760006001600085815260200190815260200160002060050160008481526020019081526020016000208281548110610b9857fe5b906000526020600020906002020160000160009054906101000a900473ffffffffffffffffffffffffffffffffffffffff16905060006001600086815260200190815260200160002060050160008581526020019081526020016000208381548110610c0057fe5b906000526020600020906002020160010154905060006001600087815260200190815260200160002060030160008681526020019081526020016000206001015490506000471115610d0d576000811315610caf578273ffffffffffffffffffffffffffffffffffffffff166108fc606484840281610c7b57fe5b0484019081150290604051600060405180830381858888f19350505050158015610ca9573d6000803e3d6000fd5b50610d08565b8273ffffffffffffffffffffffffffffffffffffffff166108fc826000038460640281610cd857fe5b0484019081150290604051600060405180830381858888f19350505050158015610d06573d6000803e3d6000fd5b505b610d15565b505050610d25565b5050508080600101915050610b32565b5060026001600084815260200190815260200160002060020160006101000a81548160ff02191690836002811115610d5957fe5b02179055505b5050565b60008060009054906101000a900473ffffffffffffffffffffffffffffffffffffffff1673ffffffffffffffffffffffffffffffffffffffff163373ffffffffffffffffffffffffffffffffffffffff161415610dc35760019050610dc8565b600090505b90565b6000809054906101000a900473ffffffffffffffffffffffffffffffffffffffff1673ffffffffffffffffffffffffffffffffffffffff163373ffffffffffffffffffffffffffffffffffffffff1614610e5a576040517f08c379a0000000000000000000000000000000000000000000000000000000008152600401610e5190611764565b60405180910390fd5b600180600083815260200190815260200160002060020160006101000a81548160ff02191690836002811115610e8c57fe5b021790555050565b6000806000806001600087815260200190815260200160002060030160008681526020019081526020016000209050600080905060008090505b60016000898152602001908152602001600020600501600088815260200190815260200160002080549050811015610f55576001600089815260200190815260200160002060050160008881526020019081526020016000208181548110610f3257fe5b906000526020600020906002020160010154820191508080600101915050610ece565b50816000015482600101548294509450945050509250925092565b60025481565b6000809054906101000a900473ffffffffffffffffffffffffffffffffffffffff1673ffffffffffffffffffffffffffffffffffffffff163373ffffffffffffffffffffffffffffffffffffffff1614611005576040517f08c379a0000000000000000000000000000000000000000000000000000000008152600401610ffc90611764565b60405180910390fd5b6000471115611085576000600190508015611083576000809054906101000a900473ffffffffffffffffffffffffffffffffffffffff1673ffffffffffffffffffffffffffffffffffffffff166108fc479081150290604051600060405180830381858888f19350505050158015611081573d6000803e3d6000fd5b505b505b565b8034101561109457600080fd5b60016000848152602001908152602001600020600501600083815260200190815260200160002060405180604001604052803373ffffffffffffffffffffffffffffffffffffffff168152602001348152509080600181540180825580915050906001820390600052602060002090600202016000909192909190915060008201518160000160006101000a81548173ffffffffffffffffffffffffffffffffffffffff021916908373ffffffffffffffffffffffffffffffffffffffff16021790555060208201518160010155505050600360003373ffffffffffffffffffffffffffffffffffffffff1673ffffffffffffffffffffffffffffffffffffffff16815260200190815260200160002060405180606001604052808581526020018481526020018381525090806001815401808255809150509060018203906000526020600020906003020160009091929091909150600082015181600001556020820151816001015560408201518160020155505050505050565b600060016000838152602001908152602001600020600401549050919050565b6040518060a0016040528060008152602001600080191681526020016000600281111561125957fe5b815260200160008152602001600081525090565b600082601f83011261127e57600080fd5b600261129161128c8261181f565b6117f2565b915081838560208402820111156112a757600080fd5b60005b838110156112d757816112bd8882611355565b8452602084019350602083019250506001810190506112aa565b5050505092915050565b600082601f8301126112f257600080fd5b600261130561130082611841565b6117f2565b9150818385602084028201111561131b57600080fd5b60005b8381101561134b5781611331888261136a565b84526020840193506020830192505060018101905061131e565b5050505092915050565b6000813590506113648161197b565b92915050565b60008135905061137981611992565b92915050565b60008135905061138e816119a9565b92915050565b600080600060a084860312156113a957600080fd5b60006113b786828701611355565b93505060206113c88682870161126d565b92505060606113d9868287016112e1565b9150509250925092565b6000602082840312156113f557600080fd5b60006114038482850161137f565b91505092915050565b6000806040838503121561141f57600080fd5b600061142d8582860161137f565b925050602061143e8582860161137f565b9150509250929050565b60008060006060848603121561145d57600080fd5b600061146b8682870161137f565b935050602061147c8682870161137f565b925050604061148d8682870161137f565b9150509250925092565b60006114a38383611608565b60208301905092915050565b60006114bb8383611635565b60208301905092915050565b60006114d38383611693565b60208301905092915050565b60006114ea82611893565b6114f481856118db565b93506114ff83611863565b8060005b838110156115305781516115178882611497565b9750611522836118b4565b925050600181019050611503565b5085935050505092915050565b60006115488261189e565b61155281856118ec565b935061155d83611873565b8060005b8381101561158e57815161157588826114af565b9750611580836118c1565b925050600181019050611561565b5085935050505092915050565b60006115a6826118a9565b6115b081856118fd565b93506115bb83611883565b8060005b838110156115ec5781516115d388826114c7565b97506115de836118ce565b9250506001810190506115bf565b5085935050505092915050565b6116028161191f565b82525050565b6116118161192b565b82525050565b6116208161192b565b82525050565b61162f8161195c565b82525050565b61163e81611948565b82525050565b61164d81611948565b82525050565b600061166060138361190e565b91507f556e617574686f726973656420416363657373000000000000000000000000006000830152602082019050919050565b61169c81611952565b82525050565b6116ab81611952565b82525050565b600060808201905081810360008301526116cb818761159b565b905081810360208301526116df81866114df565b905081810360408301526116f381856114df565b90508181036060830152611707818461153d565b905095945050505050565b600060208201905061172760008301846115f9565b92915050565b60006060820190506117426000830186611617565b61174f6020830185611644565b61175c60408301846116a2565b949350505050565b6000602082019050818103600083015261177d81611653565b9050919050565b600060208201905061179960008301846116a2565b92915050565b600060a0820190506117b460008301886116a2565b6117c16020830187611617565b6117ce6040830186611626565b6117db60608301856116a2565b6117e860808301846116a2565b9695505050505050565b6000604051905081810181811067ffffffffffffffff8211171561181557600080fd5b8060405250919050565b600067ffffffffffffffff82111561183657600080fd5b602082029050919050565b600067ffffffffffffffff82111561185857600080fd5b602082029050919050565b6000819050602082019050919050565b6000819050602082019050919050565b6000819050602082019050919050565b600081519050919050565b600081519050919050565b600081519050919050565b6000602082019050919050565b6000602082019050919050565b6000602082019050919050565b600082825260208201905092915050565b600082825260208201905092915050565b600082825260208201905092915050565b600082825260208201905092915050565b60008115159050919050565b6000819050919050565b60008190506119438261196e565b919050565b6000819050919050565b6000819050919050565b600061196782611935565b9050919050565b6003811061197857fe5b50565b6119848161192b565b811461198f57600080fd5b50565b61199b81611948565b81146119a657600080fd5b50565b6119b281611952565b81146119bd57600080fd5b5056fea365627a7a72315820f3a24998bbd84f5fd5737a8930ca1a972b7832b27547fe5de145abd47be33d396c6578706572696d656e74616cf564736f6c63430005100040",
  "source": "pragma solidity ^0.5.0;\npragma experimental ABIEncoderV2;\n\ncontract Betting {\n\n\tstruct Bet{\n\t\tuint betId; // id of the bet\n\t\tbytes32 question; // title of the bet\n\t\tBetStatus betStatus; // status of the bet {Open | Closed | Settled}\n\t\tmapping(uint => MoneyLineDatum) moneyLineData; // to store betting odds\n\t\tuint lengthMoneyLineData; // length of moneyLineData\n\t\tmapping(uint => BetterDatum[]) bettersData; // stores bet data\n\t\tuint correctChoice; // winning team\n\t}\n\n\n\tstruct MoneyLineDatum{\n\t\tbytes32 option; // team name\n\t\tint value; // betting odd for a team\n\t}\n\t\n\tstruct BetterDatum{\n\t\taddress payable better; // betters address\n\t\tuint value; // bet value of the better\n\t}\n\n\t// used for my bets\n\tstruct BetterCacheDatum{\n\t\tuint betId; // bet id\n\t\tuint optionId; // option chosen\n\t\tuint betValue; // bet value of the better\n\t}\n\t\n\taddress\tpayable owner; // store owner address\n\n\tmapping(uint => Bet) public bets; // store all bet\n\tuint public lengthBets; // length of bets\n\n\tmapping(address => BetterCacheDatum[]) betterCacheData; // store betters data for fast access\n\t// uint public lengthBetterCacheData;\n\n\tenum BetStatus {Open, Closed, Settled} //enums for different status of the bet\n\n\t// constructor\n\tconstructor() public{\n\t\towner = msg.sender; // set owner\n\n\t\t// add 2 open bets by default\n\t\tbytes32[2] memory options = [bytes32(\"Gators\"), bytes32(\"Hurricanes\")];\n\t\tint[2] memory values = [int(105), -150];\n\t\taddBet(bytes32(\"Gators vs Hurricanes\"), options, values);\n\n\t\toptions = [bytes32(\"Gators\"), bytes32(\"Bulldogs\")];\n\t\tvalues = [int(110), -160];\n\t\taddBet(bytes32(\"Gators vs Bulldogs\"), options, values);\n\t}\n\n\t// to restrict access to non admin users\n\tmodifier onlyByOwner{\n\t\trequire(msg.sender == owner, \"Unauthorised Access\");\n\t\t_;\n\t}\n\n\t// to find if the current user is admin\n\tfunction isOwner() public view returns(bool){\n\t\tif(msg.sender == owner){\n\t\t\treturn true;\n\t\t} else{\n\t\t\treturn false;\n\t\t}\n\t}\n\n\t// adds a bet without setting any values\n\tfunction addNewEmptyBet() public{\n\t\tBet memory bet;\n\t\tbets[lengthBets] = bet;\n\t}\n\n\t// to add bet\n\tfunction addBet(bytes32 question, bytes32[2] memory options, int[2] memory values) public onlyByOwner{\n\t\taddNewEmptyBet();\n\t\tBet storage bet = bets[lengthBets];\n\t\tbet.betId = lengthBets; //set id\n\t\tbet.question = question; // set title\n\t\tbet.betStatus = BetStatus.Open; // set status\n\t\tlengthBets+=1;\n\t\t// set team name and betting odds\n\t\tfor(uint i=0; i<options.length; i++){\n\t\t\tbet.moneyLineData[i] = MoneyLineDatum(options[i], values[i]);\n\t\t}\n\t\tbet.lengthMoneyLineData+=options.length;\n\t}\n\n\t// get total number of options in a bet. Currently only 2\n\tfunction getLengthMoneyLineData(uint betId) public view returns(uint){\n\t\treturn bets[betId].lengthMoneyLineData;\n\t}\n\n\t// get team name and betting odd for a given bet and a given team\n\tfunction getMoneyLineData(uint betId, uint idx) public view returns(bytes32, int, uint){\n\t\tMoneyLineDatum storage moneyLineDatum = bets[betId].moneyLineData[idx];\n\t\tuint totalBetValue = 0;\n\t\tfor(uint i=0; i<bets[betId].bettersData[idx].length; i++){\n\t\t\ttotalBetValue += bets[betId].bettersData[idx][i].value;\n\t\t}\n\t\treturn (moneyLineDatum.option, moneyLineDatum.value, totalBetValue);\n\t}\n\n\t// allows the user to bet\n\tfunction bet(uint betId, uint moneyLineDatumId, uint betValue) payable public{\n\t\trequire(msg.value >= betValue);\n\t\tbets[betId].bettersData[moneyLineDatumId].push(BetterDatum(msg.sender, msg.value)); // record betters address, choice and bet value\n\t\tbetterCacheData[msg.sender].push(BetterCacheDatum(betId, moneyLineDatumId, betValue));\n\t}\n\n\t// returns all the bet made by a user\n\tfunction myBets() public view returns (uint[] memory, bytes32[] memory, bytes32[] memory, int[] memory){\n\t\tuint n = betterCacheData[msg.sender].length;\n\n\t\tuint[] memory betValues = new uint[](n);\n\t\tbytes32[] memory options = new bytes32[](n);\n\t\tbytes32[] memory winStatus = new bytes32[](n);\n\t\tint[] memory moneyLineValues = new int[](n);\n\n\t\tfor(uint i=0; i<n; i++){\n\t\t\tuint betId = betterCacheData[msg.sender][i].betId;\n\t\t\tuint optionId = betterCacheData[msg.sender][i].optionId;\n\n\t\t\tbetValues[i] = betterCacheData[msg.sender][i].betValue;\n\t\t\toptions[i] = bets[betId].moneyLineData[optionId].option;\n\n\t\t\tif(bets[betId].betStatus == BetStatus.Open || bets[betId].betStatus == BetStatus.Closed){\n\t\t\t\twinStatus[i] = \"pending\";\n\t\t\t} else{\n\t\t\t\tif(bets[betId].correctChoice == optionId){\n\t\t\t\t\twinStatus[i] = \"won\";\n\t\t\t\t\tmoneyLineValues[i] = bets[betId].moneyLineData[optionId].value;\n\t\t\t\t} else{\n\t\t\t\t\twinStatus[i] = \"lost\";\n\t\t\t\t}\n\t\t\t}\n\t\t}\n\t\treturn (betValues, options, winStatus, moneyLineValues);\n\t}\n\n\t// close a bet before the toss\n\tfunction closeBet(uint betId) public onlyByOwner{\n\t\tbets[betId].betStatus = BetStatus.Closed;\n\t}\n\n\t// start the payout process after the winner is known\n\tfunction payout(uint betId, uint correctChoice) public onlyByOwner{\n\t\tif(bets[betId].betStatus == BetStatus.Closed){\n\t\t\tbets[betId].correctChoice = correctChoice;\n\t\t\tfor(uint i=0; i<bets[betId].bettersData[correctChoice].length; i++){\n\t\t\t\taddress payable better = bets[betId].bettersData[correctChoice][i].better;\n\t\t\t\tuint betValue = bets[betId].bettersData[correctChoice][i].value;\n\t\t\t\t\n\t\t\t\tint moneyLineValue = bets[betId].moneyLineData[correctChoice].value;\n\t\t\t\tif(address(this).balance > 0){\n\t\t\t\t\tif(moneyLineValue > 0){\n\t\t\t\t\t\tbetter.transfer(betValue+uint(moneyLineValue)*betValue/uint(100));\n\t\t\t\t\t} else{\n\t\t\t\t\t\tbetter.transfer(betValue+(uint(100)*betValue)/uint(-moneyLineValue));\t\t\t\t\n\t\t\t\t\t}\n\t\t\t\t} else{\n\t\t\t\t\tbreak;\n\t\t\t\t}\n\t\t\t}\n\t\t\tbets[betId].betStatus = BetStatus.Settled;\n\t\t}\n\t}\n\n\t// get ethers held by the contact\n\tfunction getBalance() public view onlyByOwner returns(uint){\n\t\treturn address(this).balance;\n\t}\n\n\t// redeem the ethers in the contract\n\tfunction redeem() public onlyByOwner{\n\t\tif(address(this).balance > 0){\t\n\t\t\tbool allBetsSettled = true;\n\t\t\t/*for(uint i=lengthBets-1; i>=0; i--){\n\t\t\t\tif(bets[i].betStatus != BetStatus.Settled){\n\t\t\t\t\tallBetsSettled = false;\n\t\t\t\t\tbreak;\n\t\t\t\t}else{\n\t\t\t\t\tallBetsSettled = true;\n\t\t\t\t}\n\t\t\t}*/\n\t\t\tif(allBetsSettled){\n\t\t\t\towner.transfer(address(this).balance);\n\t\t\t}\n\t\t}\n\t}\n}\n",
  "sourcePath": "E:/Projects/Tasks/ether-master/ether-master/contracts/Betting.sol",
  "compiler": {
    "name": "solc",
    "version": "0.5.16+commit.9c3226ce.Emscripten.clang"
  },
  "schemaVersion": "3.4.0",
  "updatedAt": "2021-05-13T14:40:19.335Z",
  "networkType": "ethereum",
  "devdoc": {
    "methods": {}
  },
  "userdoc": {
    "methods": {}
  }
}